{
  "_format": "hh-sol-artifact-1",
  "contractName": "Voting",
  "sourceName": "contracts/Voting.sol",
  "abi": [
    {
      "inputs": [
        {
          "internalType": "uint256",
          "name": "_voteIndex",
          "type": "uint256"
        },
        {
          "internalType": "string",
          "name": "_candidateName",
          "type": "string"
        }
      ],
      "name": "castVote",
      "outputs": [],
      "stateMutability": "nonpayable",
      "type": "function"
    },
    {
      "inputs": [
        {
          "internalType": "uint256",
          "name": "_voteIndex",
          "type": "uint256"
        },
        {
          "internalType": "string",
          "name": "_title",
          "type": "string"
        },
        {
          "internalType": "string",
          "name": "_description",
          "type": "string"
        },
        {
          "internalType": "string",
          "name": "_image",
          "type": "string"
        },
        {
          "internalType": "string[]",
          "name": "_candidateNames",
          "type": "string[]"
        },
        {
          "internalType": "uint256",
          "name": "_duration",
          "type": "uint256"
        }
      ],
      "name": "createVote",
      "outputs": [],
      "stateMutability": "nonpayable",
      "type": "function"
    },
    {
      "inputs": [
        {
          "internalType": "uint256",
          "name": "_voteIndex",
          "type": "uint256"
        }
      ],
      "name": "getVote",
      "outputs": [
        {
          "internalType": "string",
          "name": "",
          "type": "string"
        },
        {
          "internalType": "string",
          "name": "",
          "type": "string"
        },
        {
          "internalType": "string",
          "name": "",
          "type": "string"
        },
        {
          "components": [
            {
              "internalType": "uint256",
              "name": "id",
              "type": "uint256"
            },
            {
              "internalType": "string",
              "name": "name",
              "type": "string"
            },
            {
              "internalType": "uint256",
              "name": "voteCount",
              "type": "uint256"
            }
          ],
          "internalType": "struct Voting.Candidate[]",
          "name": "",
          "type": "tuple[]"
        },
        {
          "internalType": "uint256",
          "name": "",
          "type": "uint256"
        },
        {
          "internalType": "uint256",
          "name": "",
          "type": "uint256"
        },
        {
          "internalType": "uint256[]",
          "name": "",
          "type": "uint256[]"
        }
      ],
      "stateMutability": "view",
      "type": "function"
    },
    {
      "inputs": [
        {
          "internalType": "uint256",
          "name": "_voteIndex",
          "type": "uint256"
        }
      ],
      "name": "getWinner",
      "outputs": [
        {
          "internalType": "string",
          "name": "",
          "type": "string"
        }
      ],
      "stateMutability": "view",
      "type": "function"
    },
    {
      "inputs": [],
      "name": "voteCount",
      "outputs": [
        {
          "internalType": "uint256",
          "name": "",
          "type": "uint256"
        }
      ],
      "stateMutability": "view",
      "type": "function"
    },
    {
      "inputs": [
        {
          "internalType": "uint256",
          "name": "",
          "type": "uint256"
        }
      ],
      "name": "votes",
      "outputs": [
        {
          "internalType": "string",
          "name": "title",
          "type": "string"
        },
        {
          "internalType": "string",
          "name": "description",
          "type": "string"
        },
        {
          "internalType": "string",
          "name": "image",
          "type": "string"
        },
        {
          "internalType": "uint256",
          "name": "startTime",
          "type": "uint256"
        },
        {
          "internalType": "uint256",
          "name": "endTime",
          "type": "uint256"
        }
      ],
      "stateMutability": "view",
      "type": "function"
    }
  ],
  "bytecode": "0x608060405234801561001057600080fd5b506120da806100206000396000f3fe608060405234801561001057600080fd5b50600436106100625760003560e01c80634129b2c9146100675780635a55c1f0146100975780635df81330146100cd578063c638407114610101578063d037853a1461011f578063fd5d752e1461013b575b600080fd5b610081600480360381019061007c919061101d565b610157565b60405161008e91906110da565b60405180910390f35b6100b160048036038101906100ac919061101d565b61035b565b6040516100c49796959493929190611325565b60405180910390f35b6100e760048036038101906100e2919061101d565b61076e565b6040516100f89594939291906113b7565b60405180910390f35b61010961093c565b604051610116919061141f565b60405180910390f35b6101396004803603810190610134919061156f565b610942565b005b610155600480360381019061015091906116b1565b610be6565b005b6060600080600084815260200190815260200160002060040154116101b1576040517f08c379a00000000000000000000000000000000000000000000000000000000081526004016101a890611820565b60405180910390fd5b600080838152602001908152602001600020600501544211610208576040517f08c379a00000000000000000000000000000000000000000000000000000000081526004016101ff9061188c565b60405180910390fd5b60008060008481526020019081526020016000209050600081600301905060008060005b83805490508110156102a2578284828154811061024c5761024b6118ac565b5b906000526020600020906003020160020154111561028f57838181548110610277576102766118ac565b5b90600052602060002090600302016002015492508091505b808061029a9061190a565b91505061022c565b508281815481106102b6576102b56118ac565b5b906000526020600020906003020160010180546102d290611981565b80601f01602080910402602001604051908101604052809291908181526020018280546102fe90611981565b801561034b5780601f106103205761010080835404028352916020019161034b565b820191906000526020600020905b81548152906001019060200180831161032e57829003601f168201915b5050505050945050505050919050565b606080606080600080606060008060008a815260200190815260200160002060040154116103be576040517f08c379a00000000000000000000000000000000000000000000000000000000081526004016103b590611820565b60405180910390fd5b60008060008a815260200190815260200160002090506000816003018054905067ffffffffffffffff8111156103f7576103f6611444565b5b6040519080825280602002602001820160405280156104255781602001602082028036833780820191505090505b50905060005b8260030180549050811015610494578260030181815481106104505761044f6118ac565b5b906000526020600020906003020160020154828281518110610475576104746118ac565b5b602002602001018181525050808061048c9061190a565b91505061042b565b508160000182600101836002018460030185600401548660050154868680546104bc90611981565b80601f01602080910402602001604051908101604052809291908181526020018280546104e890611981565b80156105355780601f1061050a57610100808354040283529160200191610535565b820191906000526020600020905b81548152906001019060200180831161051857829003601f168201915b5050505050965085805461054890611981565b80601f016020809104026020016040519081016040528092919081815260200182805461057490611981565b80156105c15780601f10610596576101008083540402835291602001916105c1565b820191906000526020600020905b8154815290600101906020018083116105a457829003601f168201915b505050505095508480546105d490611981565b80601f016020809104026020016040519081016040528092919081815260200182805461060090611981565b801561064d5780601f106106225761010080835404028352916020019161064d565b820191906000526020600020905b81548152906001019060200180831161063057829003601f168201915b5050505050945083805480602002602001604051908101604052809291908181526020016000905b8282101561074d5783829060005260206000209060030201604051806060016040529081600082015481526020016001820180546106b290611981565b80601f01602080910402602001604051908101604052809291908181526020018280546106de90611981565b801561072b5780601f106107005761010080835404028352916020019161072b565b820191906000526020600020905b81548152906001019060200180831161070e57829003601f168201915b5050505050815260200160028201548152505081526020019060010190610675565b50505050935098509850985098509850985098505050919395979092949650565b600060205280600052604060002060009150905080600001805461079190611981565b80601f01602080910402602001604051908101604052809291908181526020018280546107bd90611981565b801561080a5780601f106107df5761010080835404028352916020019161080a565b820191906000526020600020905b8154815290600101906020018083116107ed57829003601f168201915b50505050509080600101805461081f90611981565b80601f016020809104026020016040519081016040528092919081815260200182805461084b90611981565b80156108985780601f1061086d57610100808354040283529160200191610898565b820191906000526020600020905b81548152906001019060200180831161087b57829003601f168201915b5050505050908060020180546108ad90611981565b80601f01602080910402602001604051908101604052809291908181526020018280546108d990611981565b80156109265780601f106108fb57610100808354040283529160200191610926565b820191906000526020600020905b81548152906001019060200180831161090957829003601f168201915b5050505050908060040154908060050154905085565b60015481565b6000806000848152602001908152602001600020600401541161099a576040517f08c379a000000000000000000000000000000000000000000000000000000000815260040161099190611820565b60405180910390fd5b600080838152602001908152602001600020600401544210156109f2576040517f08c379a00000000000000000000000000000000000000000000000000000000081526004016109e9906119fe565b60405180910390fd5b60008083815260200190815260200160002060050154421115610a4a576040517f08c379a0000000000000000000000000000000000000000000000000000000008152600401610a4190611a6a565b60405180910390fd5b6000806000848152602001908152602001600020905060003390508160060160008273ffffffffffffffffffffffffffffffffffffffff1673ffffffffffffffffffffffffffffffffffffffff16815260200190815260200160002060009054906101000a900460ff1615610af4576040517f08c379a0000000000000000000000000000000000000000000000000000000008152600401610aeb90611ad6565b60405180910390fd5b6000610b008385610ef4565b905060018360060160008473ffffffffffffffffffffffffffffffffffffffff1673ffffffffffffffffffffffffffffffffffffffff16815260200190815260200160002060006101000a81548160ff021916908315150217905550808360070160008473ffffffffffffffffffffffffffffffffffffffff1673ffffffffffffffffffffffffffffffffffffffff16815260200190815260200160002081905550826003018181548110610bb857610bb76118ac565b5b90600052602060002090600302016002016000815480929190610bda9061190a565b91905055505050505050565b60008611610c29576040517f08c379a0000000000000000000000000000000000000000000000000000000008152600401610c2090611b42565b60405180910390fd5b60008060008881526020019081526020016000206004015414610c81576040517f08c379a0000000000000000000000000000000000000000000000000000000008152600401610c7890611bd4565b60405180910390fd5b6000825111610cc5576040517f08c379a0000000000000000000000000000000000000000000000000000000008152600401610cbc90611c40565b60405180910390fd5b60008111610d08576040517f08c379a0000000000000000000000000000000000000000000000000000000008152600401610cff90611cac565b60405180910390fd5b6000825167ffffffffffffffff811115610d2557610d24611444565b5b604051908082528060200260200182016040528015610d5e57816020015b610d4b610fb2565b815260200190600190039081610d435790505b50905060005b8351811015610dd4576040518060600160405280828152602001858381518110610d9157610d906118ac565b5b602002602001015181526020016000815250828281518110610db657610db56118ac565b5b60200260200101819052508080610dcc9061190a565b915050610d64565b506000806000898152602001908152602001600020905086816000019081610dfc9190611e78565b5085816001019081610e0e9190611e78565b5084816002019081610e209190611e78565b504281600401819055508242610e369190611f4a565b816005018190555060005b8251811015610ed15781600301838281518110610e6157610e606118ac565b5b60200260200101519080600181540180825580915050600190039060005260206000209060030201600090919091909150600082015181600001556020820151816001019081610eb19190611e78565b506040820151816002015550508080610ec99061190a565b915050610e41565b5060016000815480929190610ee59061190a565b91905055505050505050505050565b600080600090505b8360030180549050811015610f70578280519060200120846003018281548110610f2957610f286118ac565b5b9060005260206000209060030201600101604051610f479190612021565b604051809103902003610f5d5780915050610fac565b8080610f689061190a565b915050610efc565b506040517f08c379a0000000000000000000000000000000000000000000000000000000008152600401610fa390612084565b60405180910390fd5b92915050565b60405180606001604052806000815260200160608152602001600081525090565b6000604051905090565b600080fd5b600080fd5b6000819050919050565b610ffa81610fe7565b811461100557600080fd5b50565b60008135905061101781610ff1565b92915050565b60006020828403121561103357611032610fdd565b5b600061104184828501611008565b91505092915050565b600081519050919050565b600082825260208201905092915050565b60005b83811015611084578082015181840152602081019050611069565b60008484015250505050565b6000601f19601f8301169050919050565b60006110ac8261104a565b6110b68185611055565b93506110c6818560208601611066565b6110cf81611090565b840191505092915050565b600060208201905081810360008301526110f481846110a1565b905092915050565b600081519050919050565b600082825260208201905092915050565b6000819050602082019050919050565b61113181610fe7565b82525050565b600082825260208201905092915050565b60006111538261104a565b61115d8185611137565b935061116d818560208601611066565b61117681611090565b840191505092915050565b60006060830160008301516111996000860182611128565b50602083015184820360208601526111b18282611148565b91505060408301516111c66040860182611128565b508091505092915050565b60006111dd8383611181565b905092915050565b6000602082019050919050565b60006111fd826110fc565b6112078185611107565b93508360208202850161121985611118565b8060005b85811015611255578484038952815161123685826111d1565b9450611241836111e5565b925060208a0199505060018101905061121d565b50829750879550505050505092915050565b61127081610fe7565b82525050565b600081519050919050565b600082825260208201905092915050565b6000819050602082019050919050565b60006112ae8383611128565b60208301905092915050565b6000602082019050919050565b60006112d282611276565b6112dc8185611281565b93506112e783611292565b8060005b838110156113185781516112ff88826112a2565b975061130a836112ba565b9250506001810190506112eb565b5085935050505092915050565b600060e082019050818103600083015261133f818a6110a1565b9050818103602083015261135381896110a1565b9050818103604083015261136781886110a1565b9050818103606083015261137b81876111f2565b905061138a6080830186611267565b61139760a0830185611267565b81810360c08301526113a981846112c7565b905098975050505050505050565b600060a08201905081810360008301526113d181886110a1565b905081810360208301526113e581876110a1565b905081810360408301526113f981866110a1565b90506114086060830185611267565b6114156080830184611267565b9695505050505050565b60006020820190506114346000830184611267565b92915050565b600080fd5b600080fd5b7f4e487b7100000000000000000000000000000000000000000000000000000000600052604160045260246000fd5b61147c82611090565b810181811067ffffffffffffffff8211171561149b5761149a611444565b5b80604052505050565b60006114ae610fd3565b90506114ba8282611473565b919050565b600067ffffffffffffffff8211156114da576114d9611444565b5b6114e382611090565b9050602081019050919050565b82818337600083830152505050565b600061151261150d846114bf565b6114a4565b90508281526020810184848401111561152e5761152d61143f565b5b6115398482856114f0565b509392505050565b600082601f8301126115565761155561143a565b5b81356115668482602086016114ff565b91505092915050565b6000806040838503121561158657611585610fdd565b5b600061159485828601611008565b925050602083013567ffffffffffffffff8111156115b5576115b4610fe2565b5b6115c185828601611541565b9150509250929050565b600067ffffffffffffffff8211156115e6576115e5611444565b5b602082029050602081019050919050565b600080fd5b600061160f61160a846115cb565b6114a4565b90508083825260208201905060208402830185811115611632576116316115f7565b5b835b8181101561167957803567ffffffffffffffff8111156116575761165661143a565b5b8086016116648982611541565b85526020850194505050602081019050611634565b5050509392505050565b600082601f8301126116985761169761143a565b5b81356116a88482602086016115fc565b91505092915050565b60008060008060008060c087890312156116ce576116cd610fdd565b5b60006116dc89828a01611008565b965050602087013567ffffffffffffffff8111156116fd576116fc610fe2565b5b61170989828a01611541565b955050604087013567ffffffffffffffff81111561172a57611729610fe2565b5b61173689828a01611541565b945050606087013567ffffffffffffffff81111561175757611756610fe2565b5b61176389828a01611541565b935050608087013567ffffffffffffffff81111561178457611783610fe2565b5b61179089828a01611683565b92505060a06117a189828a01611008565b9150509295509295509295565b7f566f74652077697468207468697320696e64657820646f6573206e6f7420657860008201527f6973740000000000000000000000000000000000000000000000000000000000602082015250565b600061180a602383611055565b9150611815826117ae565b604082019050919050565b60006020820190508181036000830152611839816117fd565b9050919050565b7f566f74696e67206973207374696c6c20696e2070726f67726573730000000000600082015250565b6000611876601b83611055565b915061188182611840565b602082019050919050565b600060208201905081810360008301526118a581611869565b9050919050565b7f4e487b7100000000000000000000000000000000000000000000000000000000600052603260045260246000fd5b7f4e487b7100000000000000000000000000000000000000000000000000000000600052601160045260246000fd5b600061191582610fe7565b91507fffffffffffffffffffffffffffffffffffffffffffffffffffffffffffffffff8203611947576119466118db565b5b600182019050919050565b7f4e487b7100000000000000000000000000000000000000000000000000000000600052602260045260246000fd5b6000600282049050600182168061199957607f821691505b6020821081036119ac576119ab611952565b5b50919050565b7f566f74696e6720686173206e6f74207374617274656420796574000000000000600082015250565b60006119e8601a83611055565b91506119f3826119b2565b602082019050919050565b60006020820190508181036000830152611a17816119db565b9050919050565b7f566f74696e672068617320656e64656400000000000000000000000000000000600082015250565b6000611a54601083611055565b9150611a5f82611a1e565b602082019050919050565b60006020820190508181036000830152611a8381611a47565b9050919050565b7f416c726561647920766f74656400000000000000000000000000000000000000600082015250565b6000611ac0600d83611055565b9150611acb82611a8a565b602082019050919050565b60006020820190508181036000830152611aef81611ab3565b9050919050565b7f496e76616c696420766f746520696e6465780000000000000000000000000000600082015250565b6000611b2c601283611055565b9150611b3782611af6565b602082019050919050565b60006020820190508181036000830152611b5b81611b1f565b9050919050565b7f566f74652077697468207468697320696e64657820616c72656164792065786960008201527f7374730000000000000000000000000000000000000000000000000000000000602082015250565b6000611bbe602383611055565b9150611bc982611b62565b604082019050919050565b60006020820190508181036000830152611bed81611bb1565b9050919050565b7f496e76616c6964206e756d626572206f662063616e6469646174657300000000600082015250565b6000611c2a601c83611055565b9150611c3582611bf4565b602082019050919050565b60006020820190508181036000830152611c5981611c1d565b9050919050565b7f496e76616c696420766f7465206475726174696f6e0000000000000000000000600082015250565b6000611c96601583611055565b9150611ca182611c60565b602082019050919050565b60006020820190508181036000830152611cc581611c89565b9050919050565b60008190508160005260206000209050919050565b60006020601f8301049050919050565b600082821b905092915050565b600060088302611d2e7fffffffffffffffffffffffffffffffffffffffffffffffffffffffffffffffff82611cf1565b611d388683611cf1565b95508019841693508086168417925050509392505050565b6000819050919050565b6000611d75611d70611d6b84610fe7565b611d50565b610fe7565b9050919050565b6000819050919050565b611d8f83611d5a565b611da3611d9b82611d7c565b848454611cfe565b825550505050565b600090565b611db8611dab565b611dc3818484611d86565b505050565b5b81811015611de757611ddc600082611db0565b600181019050611dc9565b5050565b601f821115611e2c57611dfd81611ccc565b611e0684611ce1565b81016020851015611e15578190505b611e29611e2185611ce1565b830182611dc8565b50505b505050565b600082821c905092915050565b6000611e4f60001984600802611e31565b1980831691505092915050565b6000611e688383611e3e565b9150826002028217905092915050565b611e818261104a565b67ffffffffffffffff811115611e9a57611e99611444565b5b611ea48254611981565b611eaf828285611deb565b600060209050601f831160018114611ee25760008415611ed0578287015190505b611eda8582611e5c565b865550611f42565b601f198416611ef086611ccc565b60005b82811015611f1857848901518255600182019150602085019450602081019050611ef3565b86831015611f355784890151611f31601f891682611e3e565b8355505b6001600288020188555050505b505050505050565b6000611f5582610fe7565b9150611f6083610fe7565b9250828201905080821115611f7857611f776118db565b5b92915050565b600081905092915050565b60008190508160005260206000209050919050565b60008154611fab81611981565b611fb58186611f7e565b94506001821660008114611fd05760018114611fe557612018565b60ff1983168652811515820286019350612018565b611fee85611f89565b60005b8381101561201057815481890152600182019150602081019050611ff1565b838801955050505b50505092915050565b600061202d8284611f9e565b915081905092915050565b7f43616e646964617465206e6f7420666f756e6400000000000000000000000000600082015250565b600061206e601383611055565b915061207982612038565b602082019050919050565b6000602082019050818103600083015261209d81612061565b905091905056fea2646970667358221220bcf5049af9bc3daafac17f9c1c97e60fc729a8f428ca1388259d0adae2bf1eec64736f6c63430008120033",
  "linkReferences": {},
  "deployedLinkReferences": {}
}